:020000040800F2
:10000000280E0020CD1900085103000853030008F2
:10001000570300085B0300085F03000800000000AE
:100020000000000000000000000000006303000862
:10003000650300080000000067030008690300086A
:10004000E7190008E7190008E7190008E719000890
:10005000E7190008E7190008E7190008E719000880
:10006000E7190008E7190008E7190008E719000870
:10007000E7190008E7190008E7190008E719000860
:10008000E7190008E7190008E7190008E719000850
:10009000E7190008E7190008E7190008E719000840
:1000A000E7190008E7190008E7190008E719000830
:1000B00057120008250F0008E7190008E719000883
:1000C000E7190008E7190008E7190008E719000810
:1000D000E7190008411900087D050008E719000824
:1000E000E7190008E7190008E7190008E7190008F0
:1000F000E7190008E7190008E7190008E7190008E0
:10010000E7190008E7190008E7190008E7190008CF
:10011000E7190008E7190008E7190008E7190008BF
:10012000E7190008E7190008E7190008E7190008AF
:10013000E7190008E7190008E7190008E71900089F
:10014000E7190008E7190008E7190008E71900088F
:10015000E7190008E7190008E7190008E71900087F
:10016000E7190008E7190008E7190008E71900086F
:10017000E7190008E7190008E7190008E71900085F
:10018000E7190008E719000800F002F800F069F824
:100190000AA090E8000C82448344AAF10107DA45E2
:1001A00001D100F05EF8AFF2090EBAE80F0013F0CB
:1001B000010F18BFFB1A43F0010318472C6500001C
:1001C0004C6500000A444FF0000C10F8013B13F09E
:1001D000070408BF10F8014B1D1108BF10F8015BA0
:1001E000641E05D010F8016B641E01F8016BF9D193
:1001F00013F0080F1EBF10F8014BAD1C0C1B09D1EA
:100200006D1E58BF01F801CBFAD505E014F8016B5B
:1002100001F8016B6D1EF9D59142D6D370470000ED
:100220000023002400250026103A28BF78C1FBD8FF
:10023000520728BF30C148BF0B607047662904F0E1
:10024000C685002070471FB504F0B7FD03F066FCBB
:1002500004000020002104F0A5F9E0601FBD10B5E6
:1002600010BD03F057FD1146FFF7EDFF00F008F851
:1002700003F075FD03B4FFF7F2FF03BC01F000FBD0
:100280004FF4A06001F0C2FBA82001F077FA4FF410
:10029000614000F010FA00F045FA00F06EFD41F206
:1002A000670140F22B1000F011FE42F2CF0140F244
:1002B000F31000F0A3FF01F077F900F0AAFE0C2381
:1002C0001AA20221084600F00AFD0C2319A21121EE
:1002D000022000F004FD0C2318A22021022000F0CF
:1002E000FEFC0C2317A22D21022000F0F8FC0C23A9
:1002F00016A20221662000F0F2FC0C2313A21121A9
:10030000662000F0ECFC0C2310A22021662000F0F7
:10031000E6FC0C230DA22D21662000F0E0FC00F08D
:1003200067FB01E001F0BEF9FCE700004149303A0B
:10033000000000004149313A000000004149323AD2
:10034000000000004149333A000000006D6D0000DC
:10035000704700BFFEE700BFFEE700BFFEE700BF3B
:10036000FEE7704770477047704700000CB50020EB
:10037000019000907648006840F48030744908602D
:1003800000BF7348006800F4003000900198401CE2
:100390000190009818B90198B0F5A04FF1D16C48C0
:1003A000006800F4003010B10120009001E000204E
:1003B00000900098012846D165484030006840F020
:1003C00080506349403108606248006840F4404012
:1003D000604908605E48083000685D49083108607F
:1003E0000846006840F4004008600846006840F491
:1003F000A05008605848091F0860081F006840F0B6
:100400008070091F086000BF5148006800F000704C
:100410000028F9D040F20570504908604C48083077
:10042000006820F003004A49083108600846006867
:1004300040F00200086000BF45480830006800F046
:100440000C000828F8D10CBD10B54548006840F4F0
:100450007000434908603E48006840F001003C4994
:10046000086000203A4908310860394800683D4971
:100470000840374908603C48091D0860081F0068AB
:1004800020F48020091F0860002031490C310860E9
:10049000FFF76CFF4FF0006031498039086010BDF4
:1004A00070B500200022022300240221284D0835C7
:1004B0002D6805F00C0020B1042806D0082834D19E
:1004C00007E02A4D2A4E356033E02A4D284E35602C
:1004D0002FE01F4D2D1D2D68C5F380541C4D2D1D83
:1004E0002D6805F03F0154B1224DB5FBF1F5184ED2
:1004F000361D3668C6F3881605FB06F209E01B4D6B
:10050000B5FBF1F5124E361D3668C6F3881605FBAD
:1005100006F20F4D2D1D2D68C5F301456D1C6B00B6
:10052000B2FBF3F5124E356003E0104D104E35600E
:1005300000BF00BF064D08352D68C5F303150E4EEC
:10054000705D0B4D2D68C540094E356070BD0000D3
:10055000003802400070004008544007003C024050
:1005600088ED00E0FFFFF6FE103000240024F400C8
:100570000000002000127A000400002010B540F2B4
:100580002551634802F00AF9C8B1614802F044F805
:10059000C4B2604890F84300402810DA5D48007803
:1005A00068B95C4890F8431090F84300401C594AE1
:1005B00082F84300D01C445400201146487010BDFE
:1005C00010B588B004460121084601F0B3FD0121B1
:1005D000402001F0AFFD0121480401F0F4FD0722A5
:1005E00002214D4801F093FB072203214A4801F004
:1005F0008EFB0C20069002208DF81C0003208DF845
:100600001D0000208DF81E0001208DF81F0006A996
:10061000414801F0F1FA4FF48070069001208DF806
:100620001C0003208DF81D0000208DF81E00012005
:100630008DF81F0006A9394801F0DEFA0294002067
:10064000ADF80C00ADF80E00ADF81000ADF81400D8
:100650000C20ADF8120002A92D4801F026FF01215F
:100660002B4801F0AAFF4021294802F08EF8012210
:1006700040F22551264802F056F826208DF8040055
:1006800002208DF8050003208DF8060001208DF86A
:10069000070001A801F0BFF900202149086008B057
:1006A00010BD00201B49087048700320887000208E
:1006B00081F84300704710B50446FFF7F2FF20466B
:1006C000FFF77EFF10BD70B505460E4601201449A8
:1006D000086000240CE000BF40210D4802F048F8FB
:1006E0000028F9D0295D0A4801F092FF601CC4B2CD
:1006F000B442F0DB00BF4021054802F039F8002881
:10070000F9D00020034981F843000549086070BD15
:10071000004400405802002000000240001802403F
:10072000A00243421CB50121022001F003FD4FF459
:100730004070009001208DF8040000208DF8060024
:1007400003208DF8050001208DF8070069468948CF
:1007500001F052FA0120884908608849C1F8A402D2
:100760001CBD10B58348006820F440208149086012
:100770000846006840F48020086001207E49091D79
:1007800008607E49C1F8A002042001F011F80020A1
:100790007949091D0860042001F00AF80020774912
:1007A000C1F8A00210BD10B57248006820F44020C6
:1007B000704908600846006840F480200860002006
:1007C0006D4908606D49C1F8A402042000F0F0FFF3
:1007D0000120694908606949C1F8A402042000F0B9
:1007E000E7FF10BD10B500246248006820F44020E7
:1007F0006049086008460068086001205E49091DDC
:10080000086000F0D5FF01205C49C1F8A00200F0AB
:10081000CFFF07E0601CC4B2FA2C03DDFFF7C3FF73
:10082000012010BD54487C3800680028F2D152499C
:10083000086000BFF5E710B500204F4908604D483B
:10084000006820F440204B4908600846006840F4E6
:100850008020086000204949C1F8A402022000F06D
:10086000A7FF012044490860022000F0A1FF0020FA
:100870004249C1F8A00210BD10B500203E490860F1
:100880003C48006820F440203A4908600846006867
:1008900040F48020086001203849C1F8A4020220F9
:1008A00000F086FF012034490860022000F080FF3C
:1008B00000203249C1F8A00210BD70B504462D4891
:1008C000006820F440202B4908600846006840F486
:1008D00080200860002028490860002517E0E00912
:1008E0002549091D08606006040E022000F060FF23
:1008F00001202249C1F8A002022000F059FF002087
:100900001D490860022000F053FF681CC5B2082D85
:10091000E5DB70BD70B5054600241648006820F47C
:10092000402014490860084600680860002616E068
:10093000002011490860022000F03AFF01200F4911
:10094000C1F8A0026006040E0B487C38006808B1AC
:10095000601CC4B2012000F02BFF701CC6B2082E30
:10096000E6DB15B9FFF788FF01E0FFF764FF2046DB
:1009700070BD000000040240A0824042008040425E
:1009800010B50446FFF7EDFE7820FFF796FFFFF75E
:1009900029FF0020FFF791FFFFF724FF2046FFF714
:1009A0008CFFFFF71FFFFFF7FEFE10BD10B50446DA
:1009B000FFF7D7FE7820FFF780FFFFF713FF4020F7
:1009C000FFF77BFFFFF70EFF2046FFF776FFFFF7ED
:1009D00009FFFFF7E8FE10BD70B505460C461CB1D7
:1009E0002846FFF7E3FF02E02846FFF7C9FF70BD86
:1009F00070B500241CE004F1B001C8B20021FFF77B
:100A0000EBFF00210846FFF7E7FF00211020FFF76A
:100A1000E3FF002508E0FE4901EBC501085D012167
:100A2000FFF7DAFF681CC5B2842DF4DB601CC4B28A
:100A3000082CE0DB70BD10B500218D20FFF7CCFF46
:100A400000211420FFF7C8FF0021AF20FFF7C4FFEB
:100A500010BD10B500218D20FFF7BEFF0021102032
:100A6000FFF7BAFF0021AE20FFF7B6FF10BD70B54B
:100A700000240CE0002506E00020E54901EBC5015B
:100A80000855681CC5B2842DF6DB601CC4B2082C66
:100A9000F0DBFFF7ADFF70BDF0B5144600267F28F0
:100AA00001DC3F2900DDF0BD0B46CF1701EB577786
:100AB000FF10C7F10707FAB2CF1701EB5777FF1006
:100AC000A1EBC707FDB2C5F107070123BB40DEB2AA
:100AD0004CB1CF4B03EBC0039B5C3343CC4F07EBD4
:100AE000C007BB5408E0CA4B03EBC0039B5CB34395
:100AF000C74F07EBC007BB5400BFD4E72DE9F04751
:100B000006460F4690469946DDF820A034460CE094
:100B10003D4606E0524629462046FFF7BDFF681CC9
:100B2000C5B24D45F6DD601CC4B24445F0DDFFF7AB
:100B30005FFFBDE8F0872DE9F84F80460F46164667
:100B40001C46BA462046E31704EB5373DB102146DC
:100B50004FEAE47C04EB5C7C4FEAEC0CA4EBCC0C9D
:100B6000BCF1000F02D04FF0010C01E04FF0000C7F
:100B70006344224604EBD27C4FEA6C0C03FB0CF37B
:100B800003F0FF0BA6F12000C6B200254EE00C2CAE
:100B900007D106EB46009F4901EB8000405D0090C5
:100BA00013E0102C05D19C4800EB0610405D00902E
:100BB0000BE0182C07D106EBC600984901EB80002A
:100BC000405D009001E0BDE8F88F4FF0000927E09C
:100BD000009800F0800028B1394640460A9AFFF795
:100BE0005BFF09E00A9808B9012000E000200246F6
:100BF00039464046FFF750FF00984006000E00902F
:100C0000781CC7B2A7EB0A00A04205D1574608F1ED
:100C1000010000F0FF0806E009F1010000F0FF0903
:100C2000B9F1080FD4DB00BF681CC5B25D45AEDB6F
:100C300000BFC8E710B50246012000E050430B1E7C
:100C4000A1F10104E1B2F9D110BD2DE9FF4F81B04E
:100C5000074691461E460E9D4FF0000A002439E0DB
:100C6000301B401EC1B20A20FFF7E4FFB9FBF0F0D1
:100C70000A21B0FBF1F201FB1208BAF1000F16D104
:100C8000701EA04213DDB8F1000F0ED10120AB465B
:100C900005EBDB71491001FB04710090C8B22B46D3
:100CA00020220299FFF747FF12E04FF0010A0120CE
:100CB000AB4605EBDB71491001FB04710090C8B233
:100CC00008F13001CAB22B460299FFF734FF00BF8A
:100CD000601CC4B2B442C3DB05B0BDE8F08FF8B508
:100CE00006460F4615461C4621E004EBD471491018
:100CF000C1F18001B14202DA00263819C7B2C4F14D
:100D00004000B84204DA002006460746FFF7AFFE6F
:100D1000012000902A78234639463046FFF70BFF22
:100D2000204604EBD07106EB6101CEB26D1C287831
:100D30007E2802DC28782028D7DAF8BD70B52DEDA2
:100D4000048B86B005460E46B0EE408A144618EE77
:100D5000100A03F0C1FF41EC190B53EC192B30A121
:100D600001A802F0B7FB234601AA31462846FFF747
:100D7000B6FF06B0BDEC048B70BD10B501202A494A
:100D800008602A49C1F898020020294908606420B7
:100D900000F056FD01202749C1F8BC020021AE2019
:100DA000FFF71AFE0021D520FFF716FE0021502084
:100DB000FFF712FE0021A820FFF70EFE00213F20C2
:100DC000FFF70AFE0021D320FFF706FE00210846A8
:100DD000FFF702FE00214020FFF7FEFD00218D20DD
:100DE000FFF7FAFD00211420FFF7F6FD0021202077
:100DF000FFF7F2FD00210220FFF7EEFD0021A12008
:100E0000FFF7EAFD0021C020FFF7E6FD002113E017
:100E10009C020020D24D00084652000836580008B7
:100E200025352E31660000009C8240420080414200
:100E3000BC02434200004342DA20FFF7CDFD00210F
:100E40001220FFF7C9FD00218120FFF7C5FD002119
:100E5000EF20FFF7C1FD0021D920FFF7BDFD0021E4
:100E6000F120FFF7B9FD0021DB20FFF7B5FD0021E0
:100E70003020FFF7B1FD0021A420FFF7ADFD0021D8
:100E8000A620FFF7A9FD0021AF20FFF7A5FDFFF782
:100E9000EEFD10BD70B502460C46FF25FF2309E0AC
:100EA00012F8010B80EA05010648405C80EA030560
:100EB0000548435C201EA4F10106F4B2F0D143EAD8
:100EC000052070BD14000020140100207FB50546E8
:100ED0000C460121022001F076F90295ADF804409C
:100EE0000020ADF80600ADF80C0001A91C4801F087
:100EF0004CFD012211461A4802F0E8F90121184878
:100F000001F0CCFD1D208DF8000001208DF80100BE
:100F100003208DF8020001208DF80300684600F0E0
:100F20007AFD7FBD10B501210D4802F0E6F90128D8
:100F300011D10C48007870B90A484078401C094922
:100F40004870084640788978884204DD01200549C8
:100F50000870002048700121014802F0DFF910BD3F
:100F600000040040580200202DE9F04385B081467E
:100F70000C461422A049684602F06EFB8DF80090E2
:100F8000002C00DBA503002C04DA60424FF0FF3197
:100F9000A1EB8035280A8DF80700E8B28DF808002B
:100FA000280E8DF80900280C8DF80A000B216846E0
:100FB000FFF770FF064606F0FF08C6F307278DF817
:100FC0000B708DF80C800D216846FFF77CFB05B097
:100FD000BDE8F0832DE9FE4304460D46864A2832DB
:100FE00007CA8DE807008DF800408DF805500621EE
:100FF0006846FFF74FFF0646F7B2C6F307288DF89D
:1010000006808DF8077008216846FFF75CFBBDE895
:10101000FE8310B503210846FFF7DCFF0A2000F02D
:101020000FFC01210220FFF7D5FF0A2000F008FC89
:101030004FF48C710220FFF797FF0A2000F000FCAC
:1010400010BD2DE9F0478AB0044614226A49503990
:1010500005A802F001FB142267493C39684602F0FA
:10106000FBFA8DF814408DF80040062105A8FFF723
:1010700011FF054606216846FFF70CFF0646EFB252
:10108000C5F3072A8DF81AA08DF81B7006F0FF092A
:10109000C6F307288DF806808DF80790082105A86B
:1010A000FFF711FB0A2000F0CBFB08216846FFF791
:1010B0000AFB0AB0BDE8F087F0B585B004461422FB
:1010C0004D492839684602F0C7FA8DF800400621DC
:1010D0006846FFF7DFFE0546EEB2C5F307278DF839
:1010E00006708DF8076008216846FFF7ECFA05B036
:1010F000F0BDF0B585B0044614223F491439684666
:1011000002F0AAFA8DF8004006216846FFF7C2FEF9
:101110000546EEB2C5F307278DF806708DF8076017
:1011200008216846FFF7CFFA05B0F0BD2DE9F0437E
:1011300085B081460C4614222F491431684602F0CE
:101140008BFA8DF80090002C00DBA503002C04DA4C
:1011500060424FF0FF31A1EB8035280A8DF807007F
:10116000E8B28DF80800280E8DF80900280C8DF8DB
:101170000A000B216846FFF78DFE064606F0FF08C1
:10118000C6F307278DF80B708DF80C800D2168468B
:10119000FFF799FA05B0BDE8F0832DE9F04385B07B
:1011A00005460E46142214493431684602F054FABA
:1011B0008DF80050B403200A8DF80700E0B28DF8D6
:1011C0000800200E8DF80900200C8DF80A000B2174
:1011D0006846FFF75FFE074607F0FF08C7F30729D9
:1011E0008DF80B908DF80C800D216846FFF76BFA97
:1011F00005B0BDE8F0830000E46500087FB5054652
:101200000C460121084600F0DEFF0295ADF80440CF
:101210000020ADF80600ADF80C0001A94FF08040A9
:1012200001F0B3FB01221146900702F04FF80121B3
:10123000880701F033FC1C208DF8000003208DF896
:10124000010004208DF8020001208DF8030068469B
:1012500000F0E1FB7FBD10B50121880702F04DF8D9
:10126000012805D10548007810B90120034908700C
:101270000121880702F052F810BD0000140200207E
:1012800070B5FA4890F84300801EC1B2F748C01C00
:10129000FFF700FE85B2F54890F84300401EF34981
:1012A000C91C0A5CC81E90F84300801E085C42EA14
:1012B0000024A54201D1002070BD0120FCE770B5DB
:1012C00004460D46012060700F21A1700021E170DD
:1012D00010212171002161710821A1710121E171A9
:1012E000E97821720821601CFFF7D4FD86B2310A2B
:1012F0006172A6720A21601CFFF7E5F90320DC4940
:10130000087070BD2DE9F0472DED068B80468946AB
:10131000D648C179807941EA0024D448417A007ADC
:1013200041EA0025D148C17A807A41EA0026CF48B7
:10133000417B007B41EA00270A2C05DA9FEDCD0AAC
:10134000CD4880ED000A18E0204603F073FB41EC25
:101350001A0B9FEDCA0B53EC102B03F013FA41EC60
:10136000190B9FEDC80B53EC102B03F0CBFB41EC9A
:10137000180B03F02DF9C04908600A2D05DA9FED1E
:10138000BD0AC24880ED000A18E0284603F052FB6F
:1013900041EC1A0B9FEDB90B53EC102B03F0F2F953
:1013A00041EC190B9FEDB70B53EC102B03F0AAFB8C
:1013B00041EC180B03F00CF9B44908600A2E05DA69
:1013C0009FEDAC0AB24880ED000A18E0304603F009
:1013D00031FB41EC1A0B9FEDA90B53EC102B03F0E2
:1013E000D1F941EC190B9FEDA70B53EC102B03F037
:1013F00089FB41EC180B03F0EBF8A54908600A2FB4
:1014000005DA9FED9C0AA34880ED000A18E03846F3
:1014100003F010FB41EC1A0B9FED980B53EC102BD3
:1014200003F0B0F941EC190B9FED960B53EC102B28
:1014300003F068FB41EC180B03F0CAF8954908600B
:101440000C228D4890ED000A02213420FFF776FC33
:101450000C228E4890ED000A11213420FFF76EFC1B
:101460000C228B4890ED000A20213420FFF766FC07
:101470000C22884890ED000A2D213420FFF75EFCF5
:10148000FFF7B6FABDEC068BBDE8F08770477047F2
:1014900070477047F0B585B0044614227E4968460F
:1014A00002F0DAF88DF8004006216846FFF7F2FCFA
:1014B0000546EEB2C5F307278DF806708DF8076074
:1014C00008216846FFF7FFF805B0F0BDF0B585B01C
:1014D0000446142270491431684602F0BDF88DF8B4
:1014E000004006216846FFF7D5FC0546EEB2C5F37D
:1014F00007278DF806708DF8076008216846FFF70A
:10150000E2F805B0F0BD10B504465848007801284F
:1015100049D15648C07801283DD1FFF7B1FE98BBAC
:1015200052480079062816D004DC012807D0032889
:1015300023D10AE00F2814D010281ED117E04B4900
:10154000C91C2046FFF7BBFE1DE04849C91C2046C8
:10155000FFF7D8FE17E04549C91C2046FFF796FF64
:1015600011E04249C91C2046FFF791FF0BE03F49BB
:10157000C91C2046FFF78CFF05E00320FFF789FF19
:101580000320207000BF03E0FFE70120FFF781FF89
:101590000120207002E00220FFF77BFF0120207075
:1015A00000203249087010BD0120314908703B49C4
:1015B00008700020488001203949087000204880C8
:1015C00070472DE9F05F04460D4616461F46DDF8CC
:1015D0003CB0DDE90C9ADDF82C806088401C60800E
:1015E000207807283FD2DFE800F03E040F19232AB5
:1015F000340061880E98814205D1314628460A9A06
:101600009047022020702EE06088584505D128467A
:10161000C047002060800320207024E0608850458F
:1016200005D12846C84700206080042020701AE0B9
:10163000394628460A9A90470520207013E06088B2
:10164000584505D12846C0470020608006202070FC
:1016500009E06088504505D12846C84700206080D1
:101660000120207000BF00BFBDE8F09F580200209D
:10167000380200200000000018020020E17A14AEB9
:10168000476120400000000000C072401C020020A2
:1016900020020020240200202C66000828020020DE
:1016A0003002002000B587B02948007801284DD1CC
:1016B0000A2002218C22274BCDE90232CDE9041009
:1016C000254826496FF095039622CDE900100221A6
:1016D00023480068FFF775FF1420082150221D4B96
:1016E000CDE90232CDE904101E481F494FF41673AC
:1016F0005A42CDE9001003211C480068FFF761FF42
:101700001B48007801281ED11A48FFF7FCFE1A4832
:101710000078012804D0022809D0032812D10DE056
:101720000120FFF7B7FE0220134908700AE00120EC
:10173000FFF7CCFE01201049087003E002200E499B
:10174000087000BF00BF00200149087007B000BD4D
:1017500014020020F3100008431000089B11000839
:101760002C020020B91000082D11000834020020BE
:1017700058020020BC0600203802002010B50446A4
:101780006FF0040000F094F9E11704EB5171C1F31C
:10179000C701394A11701046007800EB4001C1EBD7
:1017A000C0104FF6FF7101EAC0003449088010BD37
:1017B0000146314A12784A434FF0E0235A61002231
:1017C0009A611A46126942F001021A6100BF4FF095
:1017D000E022106900F001021AB100F48032002A00
:1017E000F5D04FF0E022126922F001024FF0E02321
:1017F0001A6100229A6170470146204A12884A43C2
:101800004FF0E0235A6100229A611A46126942F0B1
:1018100001021A6100BF4FF0E022106900F00102DE
:101820001AB100F48032002AF5D04FF0E02212699C
:1018300022F001024FF0E0231A6100229A61704702
:1018400070B504464FF4077094FBF0F0C6B24FF445
:10185000077094FBF0F100FB114085B205E04FF4F6
:101860000770FFF7C9FF701EC6B2002EF7D115B181
:101870002846FFF7C1FF70BD3A0200203C0200205D
:10188000014600BF704700BF4C4A128802F0400278
:10189000002AF9D0C2B2494B9A80704710B588B07F
:1018A00004460121084600F045FC0121102000F00B
:1018B0009BFC07220921424800F029FA07220A214D
:1018C0003F4800F024FA4FF4C060069002208DF8E3
:1018D0001C008DF81D0000208DF81E0001208DF8E1
:1018E0001F0006A9364800F087F902940020ADF8E1
:1018F0000C00ADF80E00ADF81000ADF814000C208F
:10190000ADF8120002A92D4800F0CFFD01212B48AF
:1019100000F053FE012240F22551284800F003FF59
:1019200025208DF8040003208DF805008DF80600B1
:1019300001208DF8070001A800F06DF808B010BD77
:1019400010B540F225511D4800F028FF10B31B4888
:1019500000F062FEC4B21B48008800F40040C8B921
:101960001848008800F4804060B10A2C03D00020A1
:101970001449088020E01348008840F400401149D1
:10198000088019E00D2C06D10E48008840F48040F4
:101990000C49088010E00B480088C0F30D000A498C
:1019A0000C5408480088401C0649088008460088F6
:1019B000C72801DD0020088010BD00000010014094
:1019C0000000024044020020FD0600200948804734
:1019D00009480047FEE7FEE7FEE7FEE7FEE7FEE711
:1019E000FEE7FEE7FEE7FEE704480549054A064B29
:1019F00070470000490400088901000828080020F9
:101A0000280E0020280A0020280A0020324901431D
:101A1000324A1160704770B5002100230F22C4784C
:101A20001CB32E4C246804F4E064C4F5E064C4F3F1
:101A30000721C1F10404E3B20A4144789C40E1B2B9
:101A40008478144021430C07210E254C05786155FC
:101A5000047804F01F050124AC4005786D11AD0039
:101A600005F1E025C5F8004109E0047804F01F0500
:101A70000124AC401B4D0678761145F8264070BD18
:101A8000194A0A400243154B1B1F1A60704739B1AF
:101A9000124A121D12680243104B1B1D1A6006E009
:101AA0000E4A121D126882430C4B1B1D1A607047B0
:101AB000042808D14FF0E021096941F004014FF0FA
:101AC000E022116107E04FF0E021096921F00401F3
:101AD0004FF0E022116170470000FA050CED00E0C4
:101AE00000E400E080E100E080FFFF1F10B5044645
:101AF0009848844208D10121084600F086FB002165
:101B0000012000F082FB76E09348844208D1012155
:101B1000022000F07AFB0021022000F076FB6AE050
:101B20008E48844208D10121042000F06EFB002180
:101B3000042000F06AFB5EE08948844208D101215C
:101B4000082000F062FB0021082000F05EFB52E05C
:101B50008448844208D10121102000F056FB002166
:101B6000102000F052FB46E07F48844208D101215A
:101B7000202000F04AFB0021202000F046FB3AE044
:101B80007A48844208D10121402000F03EFB002128
:101B9000402000F03AFB2EE07548844208D1012134
:101BA000802000F032FB0021802000F02EFB22E09C
:101BB0007048844208D10121801500F026FB0021E5
:101BC000A01500F022FB16E06B48844208D10121E9
:101BD000401500F01AFB0021601500F016FB0AE02A
:101BE0006648844207D10121001500F00EFB002158
:101BF000201500F00AFB10BDF0B50A4600210023B5
:101C0000002400BF3DE0012505FA01F3156805EA4F
:101C100003049C4234D105684F000326BE40B543FF
:101C2000056015794E00B5400668354305601579A5
:101C3000012D02D01579022D16D185684F0003269B
:101C4000BE40B543856055794E00B5408668354342
:101C50008560456801268E40B543456045689679A4
:101C60008E40B6B235434560C5684F000326BE407E
:101C7000B543C560D5794E00B540C6683543C560EB
:101C8000491C1029BFD3F0BD4FF6FF710160002140
:101C9000017141718171C171704708B54FF4803293
:101CA0000092009A0A430092009AC261C161009AB0
:101CB000C261C2690092C269009208BD024600205A
:101CC00013690B400BB1012000E000207047014672
:101CD000086980B270470246002053690B400BB17F
:101CE000012000E0002070470146486980B270473B
:101CF00001837047418370470AB1018300E041834B
:101D000070474161704742694A4042617047F0B58F
:101D1000002300244D07ED0E02FA05F3CE1000F16A
:101D2000200555F826504E07F70E0F26BE40B54346
:101D3000CF1000F1200646F82750CE1000F1200504
:101D400055F8265045EA0304CE1000F1200545F869
:101D50002640F0BD0000024000040240000802409E
:101D6000000C024000100240001402400018024023
:101D7000001C0240002002400024024000280240D3
:101D8000F948006840F00100F74908600020F64972
:101D900008310860F4480068F4490840F2490860D6
:101DA000F348091D0860F348EF4984310860F048A2
:101DB0001038091D0860EC48006820F48020EA49CA
:101DC00008600020E8490C310860E7498C31086060
:101DD00070470021E44A921C117011460870704748
:101DE00010B501460022002300204A11012A02D129
:101DF000DD4C236808E0022A03D1DB4C70342368F1
:101E000002E0D94C7434236801F01F02012494408D
:101E10001C400CB1012000E0002010BD38B50020AE
:101E200000900024002500BF3120FFF7D9FF0546B0
:101E30000098401C00900098B0F5A04F01D0002DF4
:101E4000F2D03120FFF7CCFF08B1012400E00024DC
:101E5000204638BD01460020C34A106820F0F80033
:101E600040EAC10010607047C34908607047002114
:101E7000BD4A703211701170012802D004280AD1B5
:101E800004E00121B84A7032117005E00521B64A1C
:101E90007032117000E000BF00BF7047B7490860A2
:101EA000704770B5049C41EA82150126C6EB5306C3
:101EB00045EA0645054345EA0465AB4E361D3560E7
:101EC00070BDAD4908667047820142EA0172A64BB7
:101ED00084331A607047A8498866704710B583013B
:101EE00043EA016343EA02739F4C8834236010BDC8
:101EF000A14908677047A049C8647047024600209E
:101F0000994B0833186820F0EC6042EA010318434B
:101F1000954B08331860704702460020924B0833F7
:101F2000186820F0784042EA010318438E4B0833CA
:101F300018607047014600208B4A0832106820F074
:101F4000030008431060704787480830006800F0BD
:101F50000C00704701460020834A0832106820F0C8
:101F6000F000084310607047014600207E4A0832A6
:101F7000106820F4E05008431060704701460020CC
:101F8000794A0832106820F4604040EAC1001060CD
:101F90007047F0B50021002200240225002602230C
:101FA000714F08373F6807F00C0121B1042905D0B3
:101FB000082937D105E0724F076036E0714F07609E
:101FC00033E0694F3F1D3F68C7F38056664F3F1DA2
:101FD0003F6807F03F036EB16A4FB7FBF3F7DFF8D6
:101FE00088C10CF1040CDCF800C0CCF3881C07FBA2
:101FF0000CF40CE0624FB7FBF3F7DFF86CC10CF1A7
:10200000040CDCF800C0CCF3881C07FB0CF4564F22
:102010003F1D3F68C7F301477F1C7D00B4FBF5F708
:10202000076002E0564F076000BF00BF4E4F083701
:102030003F6807F0F0010909534F7A5C0768D74001
:102040004760494F08373F6807F4E051890A4E4F0F
:102050007A5C4768D7408760434F08373F6807F48A
:102060006041490B484F7A5C4768D740C760F0BD74
:10207000002100F44072B2F5407F0AD13A4A08329A
:10208000116821F4F811414A02401143364A0832DE
:102090001160354A70321268C0F30B031A43324B99
:1020A00070331A60704735494439086070473349C6
:1020B0004039086070473649086070470146002083
:1020C000294A8C32106820F01F004A1E1043264A0D
:1020D0008C321060704701460020234A8C32106811
:1020E00020F4F8504A1E40EA02201F4A8C32106049
:1020F0007047014600201C4A8C32106820F44010C2
:1021000008431060704701460020174A8C3210685F
:1021100020F4400008431060704701460020124A36
:102120008C32106820F44030084310607047194921
:102130000860704739B10C4A3032126802430A4BCA
:1021400030331A6006E0084A303212688243064B88
:1021500030331A607047F9B1034A343212680243CF
:10216000014B34331A601CE000380240FFFFF6EAEE
:10217000103000240030002000004742800E47420B
:102180000024F40000127A0046020020FFFCFF0F3A
:102190005C014742E01147428F4A126882438E4BEE
:1021A0001A60704739B18C4A121D126802438A4B7B
:1021B0001B1D1A6006E0884A121D12688243864B76
:1021C0001B1D1A60704739B1834A0C3212680243F2
:1021D000814B0C331A6006E07F4A0C32126882434E
:1021E0007D4B0C331A60704739B17B4A103212684C
:1021F0000243794B10331A6006E0774A10321268B6
:102200008243754B10331A60704739B1724A243AD1
:1022100012680243704B243B1A6006E06E4A243A6F
:10222000126882436C4B243B1A60704739B16A4A8A
:10223000203A12680243684B203B1A6006E0664A67
:10224000203A12688243644B203B1A60704739B1D0
:10225000614A1C3A126802435F4B1C3B1A6006E05D
:102260005D4A1C3A126882435B4B1C3B1A60704704
:1022700039B1594A143A12680243574B143B1A6059
:1022800006E0554A143A12688243534B143B1A60D5
:10229000704739B1504A103A126802434E4B103B16
:1022A0001A6006E04C4A103A126882434A4B103BCF
:1022B0001A60704739B1484A1C3212680243464BD3
:1022C0001C331A6006E0444A1C3212688243424BB7
:1022D0001C331A60704739B13F4A203212680243FA
:1022E0003D4B20331A6006E03B4A2032126882439D
:1022F000394B20331A60704739B1374A243212689B
:102300000243354B24331A6006E0334A2432126804
:102310008243314B24331A60704739B12E4A2C3234
:10232000126802432C4B2C331A6006E02A4A2C32E6
:1023300012688243284B2C331A60704739B1264A01
:10234000303212680243244B30331A6006E0224ACE
:10235000303212688243204B30331A6070470128B4
:1023600008D11D493C31096841F008011A4A3C3244
:10237000116007E018493C31096821F00801164A4C
:102380003C321160704739B1134A273A1278024340
:10239000114B273B1A7006E00F4A273A1278824306
:1023A0000D4B273B1A7070470B484030006840F0D7
:1023B0008070094940310860704701460020064A94
:1023C000283A12680A400AB1012000E00020704754
:1023D00001492639087070473438024010B5044668
:1023E000FA48844208D101211020FFF752FF002152
:1023F0001020FFF74EFF57E0F548844209D1012134
:102400004804FFF735FF00214FF40030FFF730FF9D
:102410004AE0F048844209D101218804FFF728FFEF
:1024200000214FF48020FFF723FF3DE0EA4884427B
:1024300009D10121C804FFF71BFF00214FF4002040
:10244000FFF716FF30E0E548844209D10121080575
:10245000FFF70EFF00214FF48010FFF709FF23E084
:10246000DF48844208D101212020FFF712FF00211C
:102470002020FFF70EFF17E0DA48844209D101213E
:102480008807FFF7F5FE00214FF08040FFF7F0FED0
:102490000AE0D548844207D101214005FFF7E8FE54
:1024A00000216005FFF7E4FE10BD2DE9FF4705465A
:1024B0000E460024A14600BFA046B08900B100BF6F
:1024C0002C8A24F44054F08804432C82AC8941F2D5
:1024D0000C608443B0883189084371890843044300
:1024E000AC81AC8A24F44074B0890443AC82684661
:1024F000FFF74FFDB548854202D0B948854202D169
:10250000DDF80C9001E0DDF80890A88900F40040A7
:1025100040B109EBC90000EB091031684900B0FB7C
:10252000F1F707E009EBC90000EB091031688900F9
:10253000B0FBF1F76420B7FBF0F00401200964213F
:1025400001FB1078A88900F4004040B1322000EB74
:10255000C800B0FBF1F000F00700044308E03220AF
:1025600000EB08106421B0FBF1F000F00F00044311
:102570002C81BDE8FF874FF4165101600021818056
:10258000C18001810C21418100218181704710B5FA
:1025900002460020108A20F470600B884C88234388
:1025A0008C882343CC8823431843108210BD00211C
:1025B000018041808180C180704721B1828942F4CD
:1025C0000052828104E082894DF6FF731A408281B5
:1025D0007047028B02F47F420283028B0A4302831C
:1025E000704721B1828942F40042828103E08289EE
:1025F000C2F30E028281704721B1828A42F40062E6
:10260000828204E0828A4FF2FF731A40828270470E
:10261000C1F308028280704701468888C0F3080031
:102620007047028A4FF6F0731A400282028A0A4308
:102630000282704721B1828942F00202828104E065
:1026400082894FF6FD731A408281704782894FF26A
:10265000FF731A40828182890A4382817047028A0D
:102660004FF6DF731A400282028A0A4302827047E1
:1026700021B1028A42F48042028204E0028A4BF6CF
:10268000FF731A4002827047818941F00101818104
:10269000704721B1828A42F00802828204E0828A75
:1026A0004FF6F7731A4082827047028BD2B20283D0
:1026B000028B42EA01220283704721B1828A42F0F2
:1026C0002002828204E0828A4FF6DF731A408282FF
:1026D000704721B1828A42F01002828204E0828A2D
:1026E0004FF6EF731A4082827047828A4FF6FB736F
:1026F0001A408282828A0A438282704721B1828A8A
:1027000042F00202828204E0828A4FF6FD731A4090
:10271000828270471AB1838A0B43838202E0838AE4
:102720008B4383827047F0B50346002400260025C2
:10273000002040F66A17B94200D100BF1846C1F325
:10274000421401F01F06012707FA06F5012C01D1FA
:102750000C3004E0022C01D1103000E014301AB12A
:1027600007682F43076002E00768AF430760F0BDCA
:1027700002460020B1F5007F00D100BF13880B4056
:102780000BB1012000E00020704701F40072B2F5A7
:10279000007F00D100BFCA430280704770B5024677
:1027A000002400230025002040F66A16B14200D123
:1027B00000BFC1F3421501F01F03012606FA03F31F
:1027C000012D13D19689334017E00000001001401D
:1027D0000044004000480040004C004000500040D1
:1027E0000014014000780040007C0040022D02D11E
:1027F000168A334001E0968A33400C12012606FA0D
:1028000004F41688344013B10CB1012000E000201C
:1028100070BD10B50022002340F66A14A14200D119
:1028200000BF0A1201249440A3B2DC43048010BD0F
:1028300010B50446FE48844208D101210846FFF73E
:1028400028FD00210120FFF724FD9DE0B4F1804F19
:1028500008D101210846FFF70BFD00210120FFF7F9
:1028600007FD91E0F348844208D101210220FFF7DF
:10287000FFFC00210220FFF7FBFC85E0EE488442CC
:1028800008D101210420FFF7F3FC00210420FFF709
:10289000EFFC79E0E948844208D101210820FFF7E4
:1028A000E7FC00210820FFF7E3FC6DE0E4488442E8
:1028B00008D101211020FFF7DBFC00211020FFF7D9
:1028C000D7FC61E0DF48844208D101212020FFF7D6
:1028D000CFFC00212020FFF7CBFC55E0DA488442F2
:1028E00008D101210220FFF7D4FC00210220FFF7CC
:1028F000D0FC49E0D548844209D101210804FFF702
:10290000C8FC00214FF48030FFF7C3FC3CE0D04806
:10291000844209D101214804FFF7BBFC00214FF498
:102920000030FFF7B6FC2FE0CA48844209D10121EC
:102930008804FFF7AEFC00214FF48020FFF7A9FCCC
:1029400022E0C548844208D101214020FFF790FCD5
:1029500000214020FFF78CFC16E0C048844208D1DB
:1029600001218020FFF784FC00218020FFF780FCFC
:102970000AE0BB48844207D101218015FFF778FCAB
:102980000021A015FFF774FC10BD00220288A84B9F
:1029900098420ED0AC4B98420BD0B0F1804F08D08B
:1029A000A44B984205D0A44B984202D0A34B984226
:1029B00004D14FF68F731A404B881A43A04B9842AC
:1029C00007D0A04B984204D04FF6FF431A400B8922
:1029D0001A4302804B68C3620B880385944B98426C
:1029E00002D0994B984201D18B7A038601238382CE
:1029F00070474FF0FF31416000210180018141802B
:102A0000817270470185828270470A4600210188E1
:102A10004FF68F7319401143018070474162704730
:102A2000C16270470146486A70470146088D704789
:102A300021B1028842F00202028004E002884FF6CF
:102A4000FD731A400280704721B1028842F00402EF
:102A5000028004E002884FF6FB731A400280704740
:102A600021B1028842F08002028004E002884FF621
:102A70007F731A400280704702884FF6F7731A403E
:102A8000028002880A430280704702884FF6FF43A3
:102A90001A40028002880A430280704721B10288EE
:102AA00042F00102028004E002884FF6FE731A40F1
:102AB0000280704770B5002400220023058C4FF679
:102AC000FE7635400584028C8388048B4FF68F7523
:102AD0002C40B51E2C400D882C43751E2A408D8934
:102AE0002A434D882A43524DA84202D0564DA8424F
:102AF00013D14FF6F7752A40CD892A434FF6FB755F
:102B00002A408D882A434FF6FF652B404FF6FF552C
:102B10002B400D8A2B434D8A2B43838004838D6881
:102B20004563028470BD70B5002400220023058C2B
:102B30004FF6EF7635400584028C8388048B48F687
:102B4000FF752C404FF6FF452C400D884FF6FF7661
:102B500006EA05252C434FF6DF752A408D8906EAE3
:102B600005152A434D8806EA05152A43304DA8422B
:102B700002D0354DA8421DD14FF67F752A40CD8930
:102B80004FF6FF7606EA05152A434FF6BF752A4031
:102B90008D8806EA05152A434FF6FF352B404FF284
:102BA000FF752B400D8A06EA85052B434D8A06EA00
:102BB00085052B43838004838D688563028470BD03
:102BC00070B5002400220023058C4FF6FF663540C7
:102BD0000584028C8388848B4FF68F752C404FF6CA
:102BE000FC752C400D882C434FF6FF552A408D89EB
:102BF0004FF6FF7606EA05252A434D8806EA0525A5
:102C00002A430B4DA84202D00F4DA84238D14FF2B3
:102C1000FF752A40CD894FF6FF7606EA05252A433F
:102C20004FF6FF352A408D8806EA05252A4319E02C
:102C3000000001400004004000080040000C00407B
:102C4000001000400014004000040140004001401A
:102C5000004401400048014000180040001C0040B2
:102C6000002000404EF6FF752B404DF6FF752B40BF
:102C70000D8A06EA05152B434D8A06EA05152B43F6
:102C8000838084838D68C563028470BD70B5002223
:102C900000230024058C4EF6FF7635400584038C16
:102CA0008488828B48F6FF752A404FF6FF452A40FC
:102CB0000D884FF6FF7606EA05252A434DF6FF7587
:102CC0002B408D8906EA05352B434D8806EA0535EC
:102CD0002B43FE4DA84202D0FD4DA84208D14BF631
:102CE000FF752C400D8A4FF6FF7606EA85152C43BA
:102CF000848082838D680564038470BD0021018017
:102D00004180818081608181C181018241827047DF
:102D100070B50346002000241846183001258D4068
:102D2000ACB21D8CA5431D8409B108290AD100EB62
:102D3000610005684FF68F763540056005681543DC
:102D400005600FE00D1FC5F34E052844056848F6E1
:102D5000FF763540056005684FF6FF7606EA0226E5
:102D60003543056070BD4163704781637047C1633F
:102D70007047016470470A460021018B4FF68F733C
:102D800019401143018370470A460021018B48F620
:102D9000FF7319404FF6FF7303EA022319430183BF
:102DA00070470A460021818B4FF68F7319401143FB
:102DB000818370470A460021818B48F6FF731940D2
:102DC0004FF6FF7303EA02231943818370470A46D3
:102DD0000021018B4FF6F7731940114301837047AF
:102DE0000A460021018B4FF2FF7319404FF6FF7323
:102DF00003EA02231943018370470A460021818BAD
:102E00004FF6F77319401143818370470A4600213A
:102E1000818B4FF2FF7319404FF6FF7303EA0223D1
:102E20001943818370470A460021018B4FF6FB73DB
:102E300019401143018370470A460021018B4FF668
:102E4000FF3319404FF6FF7303EA0223194301834E
:102E500070470A460021818B4FF6FB7319401143DE
:102E6000818370470A460021818B4FF6FF3319405A
:102E70004FF6FF7303EA02231943818370470A4622
:102E80000021018B4FF67F73194011430183704776
:102E90000A460021018BC1F30E014FF6FF7303EACE
:102EA00002231943018370470A460021818B4FF6A4
:102EB0007F7319401143818370470A460021818B3B
:102EC000C1F30E014FF6FF7303EA02231943818316
:102ED00070470A460021018C4FF6FD7319401143DB
:102EE000018470470A460021018C4FF6F7731940A0
:102EF0001143018470470A460021018C4FF6DF73AD
:102F000019404FF6FF7303EA021319430184704717
:102F10000A460021018C4FF67F7319404FF6FF736C
:102F200003EA02131943018470470A460021018C09
:102F30004FF6FF5319404FF6FF7303EA022319437C
:102F4000018470470A460021018C4FF2FF7319403B
:102F50004FF6FF7303EA02231943018470470A46C0
:102F60000021018C4DF6FF7319404FF6FF7303EA01
:102F7000023319430184704730B5002301248C408B
:102F8000A3B2048C9C430484048C02FA01F5ADB214
:102F90002C43048430BD30B5002304248C40A3B2FC
:102FA000048C9C430484048C02FA01F5ADB22C43DA
:102FB000048430BD828B4FF2FF331A408283828BB0
:102FC0004FF6FF7303EA01231A4382837047F0B57B
:102FD0000C461546002100220026078C4EF6FF7C89
:102FE00007EA0C070784818B028C4FF6FF7707EA0C
:102FF000043640F6FF4739404FF6FF7707EA0527CA
:1030000039434FF6FF7707EA0337394345F6FF7731
:103010003A4046F480573A4381830284F0BD828B64
:103020004FF6F3731A408283828B0A438283704780
:10303000F0B50C461546002100220026078C4FF6FD
:10304000FF6C07EA0C070784818B028C4FF6FF7731
:1030500007EA04264FF60C7739404FF6FF7707EA68
:1030600003172F4339434FF2FF573A4046F4807716
:103070003A4381830284F0BD028B4FF2FF331A4042
:103080000283028B4FF6FF7303EA01231A43028384
:103090007047F0B50C461546002100220026078C2B
:1030A0004FF6EF7C07EA0C070784018B028C4FF682
:1030B000FF7707EA041640F6FF4739404FF6FF77DF
:1030C00007EA033739434FF6FF7703E0000001407A
:1030D0000004014007EA052739434FF65F773A407D
:1030E00046F010073A4301830284F0BD028B4FF68D
:1030F000F3731A400283028B0A4302837047F0B5D0
:103100000C46154600210022068C4FF6FE773E4005
:103110000684018B028C4FF60C7631407E1C06EA49
:1031200003162E4331434FF6F576324044F0010644
:10313000324301830284F0BD70B505460C462088F9
:1031400050B92389A28861882846FFF7D8FFE18813
:103150002846FFF7CBFF25E0208804280AD12389E1
:10316000A28861882846FFF794FFE1882846FFF788
:1031700083FF17E0208808280AD12389A288618864
:103180002846FFF755FFE1882846FFF748FF09E08A
:103190002389A28861882846FFF719FFE18828461D
:1031A000FFF708FF70BD002101804180012181806F
:1031B0000021C180018170472DE9F04105460C4690
:1031C00000260127608808B9022600E00026A088B2
:1031D000012801D1022700E001272088A0B9238916
:1031E000A28861882846FFF78AFFE1882846FFF712
:1031F0007DFF23893A4631462846FFF74AFFE1889A
:103200002846FFF739FF13E02389A2886188284602
:10321000FFF73FFFE1882846FFF72EFF23893A4654
:1032200031462846FFF76BFFE1882846FFF75EFF2F
:10323000BDE8F0810146486B70470146886B7047D6
:103240000146C86B70470146086C70470A884B8876
:103250001A438B881A43CB881A430B891A434B892C
:103260001A438B891A43A0F844207047002101803B
:1032700041808180C180018141818181704731B16C
:10328000B0F8442042F40042A0F8442005E0B0F831
:103290004420C2F30E02A0F84420704721B1828876
:1032A00042F00402828004E082884FF6FB731A40E9
:1032B0008280704721B1828842F00102828004E05E
:1032C00082884FF6FE731A40828070471AB1838954
:1032D0000B43838102E083898B4383817047818222
:1032E000704702460020138A0B400BB1012000E01A
:1032F00000207047CA430282704730B50246002062
:1033000000230024158A05EA0103958905EA0104D2
:1033100013B10CB1012000E0002030BDCA4302828D
:10332000704741EA0203A0F8483070471AB1838918
:103330000B43838102E083898B438381704721B1F2
:10334000828842F00802828004E082884FF6F77398
:103350001A408280704701894FF6F872114001814E
:1033600070470A46002101894FF68F7319401143B7
:103370000181704730B504460D4629462046FFF7C7
:10338000F0FF208940F00700208130BD2DE9F04199
:1033900004460D4616461F46602D06D13B460122C7
:1033A00031462046FFF775FE05E03B4601223146D7
:1033B0002046FFF7A4FE29462046FFF7D2FF2089CA
:1033C00040F007002081BDE8F08130B50C460021B7
:1033D0000189C9B24FF6FF7505EA03251543254358
:1033E0002943018130BD2DE9F04105460E461746BF
:1033F0009846002443463A4631462846FFF7E5FF03
:103400002C894FF6F870044044F007044FF68F7093
:10341000044044F070042C81BDE8F081F0B504460E
:103420000D4616461F463B46324629462046FFF7C4
:10343000CCFF208940F480402081F0BD82884FF687
:103440008F731A40828082880A4382807047028983
:103450004FF6F8731A40028102890A4302817047CD
:1034600002894FF67F731A40028102890A43028162
:103470007047F0B50C4615461E4600210022002379
:103480000189028B038C4FF6F877394021434FF6C0
:10349000FC473A4040F201173A434FF6DD773B4094
:1034A0004FF6FF7707EA06172F433B43018102835C
:1034B0000384F0BD21B1828842F08002828004E062
:1034C00082884FF67F731A4082807047A0F85010B0
:1034D000704770470FB41CB5074B06AA7B4469467A
:1034E0000090059800F001FB0020694600F010FBF9
:1034F0001CBC5DF814FB00003106000070B50446EA
:1035000085690068C10601D5302600E02026C00785
:1035100007D070BDD4E9012130469047206A401C95
:1035200020626D1EF6D570BD70B5044685690078C1
:10353000C00707D170BDD4E9012120209047206A3F
:10354000401C20626D1EF6D570BD2DE9F0474FF08E
:10355000000A89460446C0F820A02046E168884752
:10356000002876D0252806D0D4E901219047206A8A
:10357000401C2062F1E7E168204600258847C4F836
:103580001CA006460027C4F818A02A2E09D03046F1
:1035900001F001F838B304EB8708303EC8F8186032
:1035A00019E059F8041B204604EB87029161E16899
:1035B0008847012F064618D1E069002820DA25F057
:1035C00020051DE0D8F8180000EB800006EB400055
:1035D0003038C8F818002046E1688847064600F0F1
:1035E000DAFF0028EED1012F0AD02E2E08D1204676
:1035F000E16888477F1C0646022F45F02005C4DBA2
:10360000A069002803DA404245F00105A061E807FF
:1036100001D025F01005B6B1A6F14100192802D855
:10362000203645F400654A463146204625604D4621
:10363000FCF704FE58B1012806D0ED1D25F0070067
:1036400000F1080989E704E005F1040985E730463F
:103650008AE7206ABDE8F08710B5203AC0F00B80F9
:10366000B1E81850203AA0E81850B1E81850A0E886
:103670001850BFF4F5AF5FEA027C24BFB1E81850E0
:10368000A0E8185044BF18C918C0BDE810405FEA50
:10369000827C24BF51F8043B40F8043B08BF7047CC
:1036A000D20728BF31F8023B48BF11F8012B28BFD1
:1036B00020F8023B48BF00F8012B70477047704765
:1036C0007047704770472DE9FF4F0C461E464FF07C
:1036D000FF378BB0D2E90001DDF860800A908A469E
:1036E000C1F30A5505B93D46002108464FF00000D8
:1036F000BAF1000F00F4400005DA00EB80004FF44F
:10370000400101EA50004FEA9059B9F1010F00DD84
:10371000B9460A9850EA4A000ED044F61050A5F275
:10372000FF3545432F14B8F1000F1ED07542291EF6
:103730001EDDC9F100021CE0B8F1010F4FF00000DE
:1037400001D0302103E0F24305E02154401CB04297
:10375000FBDB30460022002121540B99C1F8088080
:10376000C1E900200FB0BDE8F08FBD1B6D1CDEE786
:103770004A4600DA694206A800F05AFA06AB93E816
:10378000070003AB83E8070050460A9900F030FBBE
:103790008DE80700A0F500501F3800900398002D19
:1037A00009DD42F21F014A46084403A90390684616
:1037B00000F08FFD08E0A0F500504A461F3803A92D
:1037C0000390684600F099FD8DE807000004000CA6
:1037D00003D04FF0FF30410800E01046B8F1000F71
:1037E00003D00022009215461EE0751E05D400F09D
:1037F00099F9303262556D1EF9D5B346012208435E
:1038000002D000227F1C04E02078302801D1002261
:103810007F1E002A099786D01DE0112D07DA00F0DF
:1038200081F9303262556D1C50EA0102F5D108432E
:1038300002D00098C8B10EE00021681E05E0235CAC
:10384000625C63542254401E491C8142F7DBAB4644
:10385000A81B401E0990002004F80B000B98099A41
:10386000C0F80880C0E9002B7CE711264FF0000863
:1038700059E72DE9F04F88460446D21D22F0070192
:1038800091B0D1E90001CDE90A0100F06CFE0246D9
:103890000B98C00F01D02D2007E02068810701D5CB
:1038A0002B2002E0202101EAC000032A099001D068
:1038B000072A05DB03464146204600F079F90BE173
:1038C0002078800601D5E06900E00620B8F1650F98
:1038D000814606D0B8F1660F18D0B8F1670F70D1E5
:1038E00031E00020B9F1110F009001DB112301E05C
:1038F00009F101030AAA01A90CA8FFF7E4FEDDE91A
:103900000C70002609F10105834647E001204B4673
:1039100000904FF000470AAA01A90CA8FFF7D3FEB8
:10392000DDE90DB00C995D46002610B909F10100E2
:103930000D18B9EB050003D4C0F1FF3609F10105FC
:10394000A5EB09002BE0B9F1010F01DA4FF00109F5
:103950000020B9F1110F0090484601DD112300E06D
:1039600003460AAA01A90CA8FFF7ADFEDDE90C7019
:103970004D4600268346207800070AD4AB4500DA7E
:103980005D4601A8012D04DD411911F8011C302903
:1039900007D04F4502DA17F1040F04DA01208246FE
:1039A0000FE06D1EEEE7002F02DCED1B3E4403E04E
:1039B000781CA84200DD7D1CB81B00F1010A4FF005
:1039C00000472078000703D4AA4501DB4FF0FF3AF7
:1039D0000021B7F1004F0DF143088DF8431024D0BA
:1039E00002202B23002F01DA7F422D230A21021E01
:1039F000A0F1010000DC5FB197FBF1FC97FBF1F255
:103A000001FB1C7C17460CF1300C08F801CDEEE7E9
:103A1000A8F1010003702188090501D5452100E0C6
:103A20006521A0F1010800F8011C09980FA9A1EB7C
:103A30000807FF1D00B10120411901EBEA70A169DF
:103A40003844081A401EA0612078C00602D42046DF
:103A5000FFF754FD099828B1D4E901219047206A65
:103A6000401C20622078C00622D52046FFF746FD84
:103A70001EE0002E04DBB34502DD01A8805D00E0FE
:103A80003020D4E901219047206A401C2062761C36
:103A9000AAF101005FEA000A0AD100F03FF8C0680D
:103AA0000168405CD4E901219047206A401C2062F3
:103AB000281EA5F10105DCDC07E0D4E9012118F896
:103AC000010B9047206A401C2062381EA7F10107B5
:103AD000F3DC2046FFF728FD032011B043E6000089
:103AE00001694A1C02610878704700B58FB0CDE9C2
:103AF00001310021059105497944CDE903101146B2
:103B00006846FFF722FD0FB000BD0000E5FFFFFF94
:103B10000A6802F8010B0A6070470000004870470D
:103B2000E807002030B5B0F10A024FEA900E71F1BB
:103B300000034EEA817EB0EB0E0061EB91014FEA8B
:103B4000101E4EEA017E10EB0E0041EB11114FEA00
:103B5000102E4EEA016E10EB0E0041EB11214FEAE0
:103B6000104E4EEA014E10EB0E0041EB1141401891
:103B700041F100014FEAD00040EA41704FEAD10123
:103B800010EB80054FEA810444EA907444EB010491
:103B90006D1944EB0404521BA3414FF0000348BFCE
:103BA0000A3200D530BD401C41F1000130BD00009B
:103BB0002DE9F0411F46044603260168072A01F457
:103BC000006004DB08B116A505E016A503E008B106
:103BD00015A500E015A521F010002060A069C01E09
:103BE000A0610FB1401EA0612046FFF787FC4FB1D6
:103BF000D4E9012138469047206A401C2062C01C4D
:103C0000206206E0206AFAE7D4E9012115F8010BE9
:103C10009047761EF8D22046FFF786FCBDE8F0817B
:103C20004E414E006E616E00494E4600696E660060
:103C30002DE9F047814616468AB0334878440DC8CE
:103C40008DE80D0030487844801C03AC0DC884E832
:103C50000D0041F69B300844372190FBF1F290FBB8
:103C6000F1F5A5F1800501FB12041B3C02D564426D
:103C7000012000E00020DFF890A080460027FA44F1
:103C8000AAF1BE0A0DE0E00709D03246684607EB0C
:103C900047010AEB810100F030FB8DE8070064105A
:103CA0007F1C002CEFD1184F7F44AC3F18E0E80791
:103CB00014D007EB04100DF1180A90E80E008AE802
:103CC0000E00C068F04201D198190890324606A94A
:103CD00003A800F012FB03AB83E807006D10641C1F
:103CE000002DE4D132466946B8F1000F03A802D096
:103CF00000F0EFFA01E000F000FBC9E90001C9F8AB
:103D000008200AB0BDE8F087902A000000487047FC
:103D1000C80700207546FFF7F9FFAE460500694663
:103D2000534620F00700854618B020B5FDF75CFE2D
:103D3000BDE820404FF000064FF000074FF00008AC
:103D40004FF0000B21F00701AC46ACE8C009ACE82D
:103D5000C009ACE8C009ACE8C0098D46704710B591
:103D60000446AFF300802046BDE81040FCF782BA5D
:103D70004FF0013C50F8042B51F8043B9A4221D1FA
:103D8000A2EB0C03934313EACC1317D150F8042B86
:103D900051F8043B9A4215D1A2EB0C03934313EA6A
:103DA000CC130BD150F8042B51F8043B9A4209D1A3
:103DB000A2EB0C03934313EACC13DBD04FF00000CB
:103DC000704700BFD01A01BAB1FA81F101F01801B1
:103DD00022FA01F0CB40C1F12001DBB2C0B2C01A1F
:103DE0002CFA01F3D11A914311EAC311E6D17047BD
:103DF0005FEA400C08BF91F0000F4FEA8C234FEAB6
:103E0000C12243EA51514FEA1C5018BF00F5F0405F
:103E10004FEA300018BF41F000415FEA6C5C00F0EF
:103E20002980BCF1FF3F08BF40F080407047130C71
:103E300006BF12044FF0100C4FF0000C130E04BF1D
:103E400012020CF1080C130F04BF12010CF1040C48
:103E5000930F04BF92000CF1020CD30F04BF520069
:103E60000CF1010C11464FF00002A0F11F00A0EB75
:103E70000C00704711F0004F08BF704731F000414F
:103E80003FF4D5AF0B0C06BF09044FF0100C4FF0F8
:103E9000000C0B0E04BF09020CF1080C0B0F04BF41
:103EA00009010CF1040C8B0F04BF89000CF1020C0A
:103EB000CB0F04BF49000CF1010CCCF12003A0EBA7
:103EC0000C0022FA03F302FA0CF241EA030100F1BA
:103ED0000100704720F07F4C80EA030023F07F4709
:103EE000ACEB070303F57C5300F0004003F1FF0344
:103EF0002DE980494FEA154B09B44FEA144325EAEE
:103F00000B4E24EA03480FF2042606EB1327490858
:103F10003E785FEA320203FB0667C7F5000707FB3E
:103F200006F64FEA54374FEAD64606F1020607FB7B
:103F3000066CCCF1005C4FEA1C472CEA074C07FBEF
:103F400006F40CFB06F504EB15464FEA961634BF53
:103F500000204FF000404FEAD13706FB07FC4FEA44
:103F60001C4C0CFB0BF7D21B03FB0CF761EB07019E
:103F70000CFB0EF7B0EB074072EB17420CFB08F797
:103F800034BFA2EB0742B2EB074261EB17414FEAA5
:103F90000C444FEA910706FB07FC4FEA1C4C0CFB54
:103FA0000BF7B0EBC74072EB573203FB0CF734BF93
:103FB000A2EBC742B2EBC74261EB57310CFB0EF7E5
:103FC000B0EBC70072EB57720CFB08F734BFA2EBE3
:103FD000C702B2EBC70261EB5771039F4FEA8161E1
:103FE00041EA921104EBCC044FEAD1374FEA8262E6
:103FF00006FB07FC42EA90124FEA80604FEA1C4C35
:104000000CFB0BF7D21B03FB0CF761EB07010CFB5E
:104010000EF7B0EB074072EB17420CFB08F734BF0A
:10402000A2EB0742B2EB074261EB17414FEA8C5516
:104030004FEA910704EB9C2406FB07FC4FEA1C4C5B
:104040000CFB0BF7B0EBC74072EB573203FB0CF7DE
:1040500034BFA2EBC742B2EBC74261EB57310CFB56
:104060000EF7B0EBC70072EB57720CFB08F734BFCA
:10407000A2EBC702B2EBC70261EB577115EB4C25FF
:104080004FEA816141EA92114FEA82624FEAD137E9
:1040900042EA901206FB07FC44F100044FEA8060FC
:1040A0004FEA1C4C0CFB0BF7D21B03FB0CF761EB2C
:1040B00007010CFB0EF7B0EB074072EB17420CFB4D
:1040C00008F734BFA2EB0742B2EB074261EB17419E
:1040D00015EB1C154FEA813141EA92414FEA8232D9
:1040E00042EA90424FEA80304FEA0C7644F10004F5
:1040F00048EA03434EEA0B484FF0000EB2EB080CBF
:1041000071EB030724BF624639464EEB0E0E4FF0AB
:10411000000B0018524149414BEB0B0BB2EB080C62
:1041200071EB03077BF1000B24BF624639464EEB6F
:104130000E0E4FF0000B0018524149414BEB0B0B98
:10414000B2EB080C71EB03077BF1000B24BF624656
:1041500039464EEB0E0E51EA020718BF46F0010633
:1041600016EB0E7655F1000254F1000103D5BDE8BF
:104170008901BDE80088BDE88901BDE80048B6199D
:10418000524141EB0101A3F10103704780807F7E22
:104190007D7C7B7A797877767675747372717170BD
:1041A0006F6E6E6D6C6C6B6A6A696868676666656F
:1041B0006464636362616160605F5F5E5E5D5D5CFD
:1041C0005C5B5B5A5A59595858575756565555556E
:1041D0005454535352525251515050504F4F4F4ECE
:1041E0004E4D4D4D4C4C4C4B4B4B4A4A4A4949491C
:1041F000484848474747474646464545454444445E
:10420000444343434342424242414141002B26D46E
:10421000770021D01CB54FEA370703B44FF01000E8
:104220004FF010014FF000000FBCBDE810400BF143
:10423000010BBBF1010F08BF5FEA170722BF12F1A4
:10424000010211F101014FF0004143F1000300F0C0
:10425000004043EA00007047F9D35708DAE746EA1E
:10426000064613F1400F4FEA16461FDD13F1200FEB
:10427000DFBF16430A46002120335B42C8D0C3F19A
:10428000200746EA064602FA07F74FEA164646EACC
:104290000706C3F1200722FA03F201FA07F721FA11
:1042A00003F14FF0000342EA0702B1E746EA0206D3
:1042B00046EA06464FEA164646EA0106BCBF46EA0B
:1042C0000646360C4FF000034FF000024FF000019D
:1042D0009EE72DE9C048934630B491E8380007C8FE
:1042E00031EA400C48BF34EA430C03D5FFF7F2FD36
:1042F000FFF78CFFF0BCBDE800882DE9C04893466D
:1043000030B491E8380007C810F0804F08BF13F0B0
:10431000804F03D100F005F8FFF778FFF0BCBDE84F
:10432000008820F07F4780EA030023F07F4C07EBF2
:104330000C03A3F57C5300F00040A3F1FE0392F0C0
:10434000000F00F0B38095F0000F00F077802DE9AA
:1043500001494FEA11404FEA144621EA004800FBA8
:1043600006FC24EA064708FB06F607FB08F800FBF4
:1043700007F718EB06484CEB164C4FEA124B18EBBC
:1043800007484FEA15464CEB174022EA0B4E0BFB51
:1043900006FC25EA06470EFB06F607FB0EFE0BFBA6
:1043A00007F71EEB064E4CEB164C4FF000061EEBCB
:1043B000074E4CEB174B18EB0B0840F1000018EBC5
:1043C0000E0B58EB000840F100008F1A4FF000016F
:1043D0003CBFC943661B14BFB5EB040C00213CBFB6
:1043E000C943F61B4FEA17444EEA8E0E27EA0445EE
:1043F0004FEA1C4704FB07622CEA074C05FB07F752
:104400000CFB05F604FB0CFC16EB074642EB1742CF
:1044100016EB0C4642EB1C421BEB060658EB020265
:10442000414146EA9E0601D5BDE80189B6195241CF
:1044300041EB0101A3F10103BDE801894FEA1445F5
:104440004FEA114724EA054621EA074C05FB07F429
:1044500006FB07F70CFB06F105FB0CFC11EB074113
:1044600044EB17444FEA124711EB0C4144EB1C4458
:1044700022EA074C05FB07F206FB07F70CFB06F6E2
:1044800005FB0CFC16EB074642EB174216EB0C46FD
:1044900042EB1C456A1854F1000148BF7047B61939
:1044A000524141EB0101A3F10103704795F0000F68
:1044B00037D04FEA11424FEA144721EA024624EA74
:1044C000074C02FB07F106FB07F70CFB06F402FBA7
:1044D0000CFC14EB074441EB17414FEA154714EB72
:1044E0000C4441EB1C4125EA074C02FB07F506FB97
:1044F00007F70CFB06F602FB0CFC16EB074645EB38
:10450000174516EB0C4645EB1C42121951F1000100
:1045100048BF7047B619524141EB0101A3F10103B5
:1045200070474FEA14454FEA114724EA054621EA4D
:10453000074C05FB07F106FB07F70CFB06F24FF0F3
:10454000000605FB0CFC12EB074241EB174112EB96
:104550000C4251EB1C4148BF7047921841EB0101DE
:10456000A3F10103704703B401984100009850EA99
:10457000C12018BF04204A0D18BF40F0010040F2CE
:10458000FF72B2EB515F08BF40F00200012808BF84
:10459000052002B0704730380A2801D20120704748
:1045A0000020704710B500290AD00878002807D0ED
:1045B00005487844FFF7DCFB002801D0002010BD3F
:1045C0000248784410BD0000562100004E21000032
:1045D00021F00042A2F16052B2F5801F01F00043C9
:1045E00028BFD2F17F6C0BD95FEA001C43EAC202FC
:1045F00042EB507018BF704728BF20F00100704791
:10460000B2F5801FBCBF184670474FEA410C1CF53D
:10461000001F02D2084600F0D5BB70B500F01DFAAD
:1046200000000089FFF7F6BF4FF00040A0F58000C2
:104630007047000010B591EA030F48BF83F00043B4
:1046400000F16882841A71EB030C05D2121943EB56
:104650000C03001B61EB0C01DFF824E14FEA11545D
:10466000A4EB135C1EEA430F18BF9EEA445F73D0AD
:1046700023EA0E03DCF1200E21EA045143F48013F7
:1046800032D322FA0CFE10EB0E0023FA0CFE41EBA3
:104690000E01CCF1200E03FA0EFE10EB0E0051F1CC
:1046A0000001B1F5801FCCF1200E32D201EB045194
:1046B00012FA0EF2BDE8104058BF7047401C38BFD8
:1046C0005FEA420218BF7047002814BF20F00100C3
:1046D00041F100014FEA410313F5001F38BF704755
:1046E000A1F1C04100F007BA012A43EB0302ACF18B
:1046F000200CDCF11F0E32BF4FF0000E23FA0CF33A
:1047000010EB030041EB0451B4EB115FD0D0A1EBEF
:10471000045101F5801149085FEA300001EB0451B2
:104720000ED350F1000038BF12FA0EFE08D1BDE8DA
:104730001040C9E7401C38BF5FEA4202CAD1C3E754
:10474000BDE810404FEA410313F5001F38BF704722
:10475000A1F1C04100F0CFB99EEA445F08D011EA50
:104760005E0FBDE8104004BF01F00041002070471B
:10477000BDE8104070B500F070F900BF64FBBE3EAC
:104780000000E0FF2DE9C04130B4DFF8A0C23CEAF0
:10479000111418BF3CEA131400F0EC8081EA030501
:1047A0001CEA111444EAD57418BF1CEA131500F072
:1047B000C780A4EB05044FF0004545EAC12145EA56
:1047C000C32341EA505143EA525304F17F749942A2
:1047D00004F500344FEAC0204FEAC22208BF9042DD
:1047E00000F09C804FEA13650FF24016765D4FEAA9
:1047F000134506FB05F7C7F1807706FB07F74FEA7D
:10480000D737A7FB03687642C8F58038A7FB06CEEA
:1048100038BFA8F1010807FB08E64FF0000EA6FB21
:10482000028CE6FB03CEDCF1000CCEF1004E38BF6B
:10483000AEF1010EA6FB0C584FF000074FF000053B
:10484000E6FB0E87A1FB08C6A0FB07CE16EB0E0603
:1048500045F10005E1FB076515F1E04E7EBFA4F5CB
:1048600080345FEA46066D4116F1800745F1000588
:104870004FEA17274FEA066647EA0567A6F1DE46C4
:10488000B6F1805F4FEA15251FD9384624F0010C98
:1048900005EBC471BCF1FE6F01EB0C1102D8F0BC4A
:1048A000BDE8008124425CBF01F5801E9EEAC47F02
:1048B00002D4F0BCBDE80081244238D4F0BCA1F1A0
:1048C000C041BDE8004100F016B94FEAD22242EAE9
:1048D00043524FEAD323A7FB02864FEAD02040EA97
:1048E000415007FB03661EEA0E0F4FEAD12105FB7C
:1048F000026658BFA6EB0056B6EB00564FEA520EC2
:104900004EEAC37E18EB0E0E56EB530EBDD518EBD8
:1049100002085E417F1C55F10005B6E74FF4801593
:104920004FF000074FF000064FF00008ADE7F0BC75
:104930004FF0000001F1C04101F00041BDE80081ED
:1049400011EA0C1F0CEA131500D00CE013EA0C1F3F
:1049500000F025804FF00000F0BC81EA030101F077
:104960000041BDE80081F0BCBDE8004181EA0301DF
:1049700000F0C1B8F0BCBDE8004170B500F06DF8C2
:10498000097EFC3E00F007B881EA03014FF0000009
:1049900001F00041704781EA030100F0ACB8F0BCBF
:1049A000BDE800414FF0000021497047FFFDFBF9D1
:1049B000F7F5F4F2F0EEEDEBE9E8E6E4E3E1E0DE52
:1049C000DDDBDAD8D7D5D4D3D1D0CFCDCCCBCAC8C4
:1049D000C7C6C5C4C2C1C0BFBEBDBCBBBAB9B8B7EB
:1049E000B6B5B4B3B2B1B0AFAEADACABAAA9A8A8DE
:1049F000A7A6A5A4A3A3A2A1A09F9F9E9D9C9C9BAC
:104A00009A99999897979695959493939291919056
:104A10008F8F8E8E8D8C8C8B8B8A898988888787E7
:104A20008685858484838382828181800000FF075C
:104A30000000F87FB0FA80F310FA03F10AD0C3F156
:104A40001D0303F580634FEA41504FEA035202EB26
:104A5000D12170474FF0000070470EF1020E2EF08A
:104A6000030E5EF8046B364205D4012A43EB0305BE
:104A700015F5001F12D8012841EB010C1CF5001F91
:104A80000CD80ED14FEAD17C15F5001F0CEB4C0C65
:104A90000CF1020C08BF4CEBD37C04E04FF0080C87
:104AA00001E04FEAD37C0CEB4C0526FA05F606F044
:104AB0000706B6F1040C06D20EEB860CBDE870407A
:104AC0004CF0010C6047DFE80CF0090B02024FF0DC
:104AD00000414FF00000A1F5002170BD19461046BD
:104AE000012851EB010418BFD4F5001484BF002045
:104AF00001F0004170BD0808A0F500114FEA310136
:104B00007047000010B591EA030F48BF83F00043DF
:104B10003FF598AD841A71EB030C07D212198CF093
:104B2000004C43EB0C03001B61EB0C01DFF8A4E12C
:104B30004FEA1154A4EB135C1EEA430F18BF9EEA20
:104B4000445F00F0B08023EA6E03524221EA045130
:104B5000C3EB6E0338BF5B1EDCF1200E25D322FAB7
:104B60000CFE10EB0E0043FA0CFE41EB0E01CCF1F3
:104B7000200E03FA0EFE10EB0E0051F10001CCF1F5
:104B8000200E29D412FA0EF201EB0451BDE81040B8
:104B900058BF7047401C1CBFB2F1004F704700283F
:104BA0000CBF491C20F00100704712EB020E43EBD2
:104BB000030218BF4FF0010E4EEA4202ACF1200C86
:104BC000DCF11E0E54D943FA0CFE10EB0E0051F12D
:104BD000FF31CCF11E0ED5D50EF1010E12FA0EFEEC
:104BE000404141EB010101EB445C5FEA5C5C10D9A0
:104BF00010EBDE7001EB045138BFBEF1004FBDE891
:104C0000104018BF704700280CBF491C20F001005D
:104C1000704730D24FEAD42C11F5001124F400640F
:104C20001BD0B1FA81F20B3AA41AA41ED2F12003D0
:104C3000914030FA03F31943904001EBCC71002C02
:104C400001EB0451BDE81040A8BF704701F1C0411D
:104C50004FF0000001F000417047B0FA80F310FA05
:104C600003F100D110BDE41A173C4805C90AE4E776
:104C700001EB045110BD491001EB0451BDE8104097
:104C80004FEA300002E04FF0000170474A0008BFD1
:104C90000042F8D0B2F5001F28BF704701F0004174
:104CA0004FF0000070479EEA445F07D011EA5E0FA4
:104CB000BDE8104004BF002100207047BDE810404F
:104CC00070B5FFF7CAFE00BF40DFF63E83F000413B
:104CD000104670470000E0FF43004FEAD30C4FEA54
:104CE0003C0C43401FBF40070CF1605113F0FE4FD6
:104CF00070471CF0006F03D100200CF0004170479A
:104D00000CF0004343EA507010B540EACC0000F0CC
:104D10000EF800BF000000924FEA0001FFF7EBBE63
:104D20004FF000414FF00000A1F5002170470EF157
:104D3000020E2EF0030E5EF8044B244204D44FEA18
:104D40004102B2F17F4F11D84FEA4003B3F17F4FD8
:104D50000CD80ED14FEAD07CB2F17F4F0CEB4C0C4B
:104D60000CF1020C08BF4CEBD17C04E04FF0080CB6
:104D700001E04FEAD17C0CEB4C0324FA03F404F07D
:104D80000704B4F1040C06D20EEB840CBDE810400D
:104D90004CF0010C6047DFE80CF0070802024FF00E
:104DA0000040A0F5800010BD0846420018BFD2F1B7
:104DB000807288BF00F0004010BD4FF04070E1EEFF
:104DC000100A7047FF2141EAD050C0057047FEF736
:104DD00050BD0000000000000000000000000000C6
:104DE00000003F40000000000000000030004000D4
:104DF00030004000000009000BC03D000BC03D002A
:104E0000090018C024407FE02240318000001800D3
:104E100024C01B000D803240018003801C402740CD
:104E20001C800740004010006000000000000000EF
:104E300000000000000000001F8020404020000013
:104E4000402020401F8000000000090006001F8055
:104E5000060009000000040004003F800400040074
:104E600000000010006000000000000000000400CE
:104E700004000400040004000000000000400000E2
:104E8000000000000000002001C0060038004000C3
:104E900000001F802040204020401F8000000000B4
:104EA00010403FC000400000000018C021402240D8
:104EB00024401840000010802040244024401B80E3
:104EC000000002000D0011003FC0014000003C80C6
:104ED000244024402440238000001F80244024409C
:104EE0003440038000003000200027C0380020003C
:104EF00000001B802440244024401B8000001C0034
:104F000022C0224022401F80000000000000084014
:104F1000000000000000000000000460000000002D
:104F20000000000004000A00110020804040090039
:104F3000090009000900090000000000404020802D
:104F400011000A000400180020002340240018006B
:104F500000001F802040274029401F4000000040E3
:104F600007C039000F0001C0004020403FC024406E
:104F700024401B8000001F802040204020403080C3
:104F8000000020403FC0204020401F800000204003
:104F90003FC024402E4030C0000020403FC024408D
:104FA0002E00300000000F0010802040224033808F
:104FB000020020403FC0040004003FC020402040C9
:104FC00020403FC0204020400000006020202020E2
:104FD0003FC02000200020403FC024400B0030C0D4
:104FE000204020403FC020400040004000C03FC063
:104FF0003C0003C03C003FC0000020403FC00C40CC
:1050000023003FC020001F802040204020401F8000
:10501000000020403FC024402400180000001F80F2
:105020002140214020E01FA0000020403FC024403C
:10503000260019C0004018C024402440224031807E
:105040000000300020403FC0204030000000200021
:105050003F80004000403F80200020003E0001C013
:10506000070038002000380007C03C0007C03800A7
:105070000000204039C0060039C020400000200058
:10508000384007C0384020000000304021C0264092
:10509000384020C00000000000007FE04020402099
:1050A0000000000070000C000380004000000000C1
:1050B000402040207FE00000000000002000400071
:1050C0002000000000000010001000100010001070
:1050D0000010000000004000000000000000000080
:1050E00002800540054003C0004020003FC004404E
:1050F0000440038000000000038004400440064098
:10510000000000000380044024403FC00040000035
:1051100003800540054003400000000004401FC01C
:10512000244024402000000002E0055005500650B5
:10513000042020403FC00440040003C000400000A1
:10514000044027C0004000000000001000100410C0
:1051500027E00000000020403FC00140070004C0DD
:105160000440204020403FC000400040000007C0F5
:10517000040007C0040003C00000044007C004404E
:10518000040003C00040000003800440044003808A
:105190000000041007F004500440038000000000E9
:1051A00003800440045007F00010044007C0024090
:1051B000040004000000000006400540054004C053
:1051C0000000000004001F800440004000000400B4
:1051D00007800040044007C000400400070004C0EE
:1051E000018006000400060001C0070001C006009F
:1051F0000000044006C0010006C004400000041086
:10520000071004E00180060004000000044005C00F
:105210000640044000000000000004007BE0402045
:105220000000000000000000FFF00000000000008F
:1052300040207BE0040000000000400080004000AF
:1052400020002000400000000000000000000000DE
:105250000000000000000000000000001FCC000C57
:10526000000000000000000008003000600008009E
:10527000300060000000022003FC1E20022003FC1E
:105280001E200220000000000E1811043FFF1084B1
:105290000C78000000000F0010840F3800C0077861
:1052A00018840078000000780F8410C411240E9830
:1052B00000E400840008080068007000000000009E
:1052C00000000000000000000000000007E01818C7
:1052D000200440020000000040022004181807E0EB
:1052E0000000000000000240024001800FF0018039
:1052F0000240024000000080008000800FF8008023
:105300000080008000000001000D000E0000000081
:10531000000000000000000000800080008000808D
:105320000080008000800000000C000C00000000E5
:10533000000000000000000000060018006001806E
:10534000060018002000000007F0080810041004F0
:10535000080807F000000000080408041FFC00040F
:1053600000040000000000000E0C10141024104473
:1053700011840E0C000000000C181004110411041C
:1053800012880C700000000000E0032004240824B0
:105390001FFC0024000000001F9810841104110459
:1053A000108810700000000007F008881104110434
:1053B00018880070000000001C00100010FC130092
:1053C0001C001000000000000E38114410841084EE
:1053D00011440E38000000000700088C10441044EF
:1053E000088807F00000000000000000030C030C18
:1053F00000000000000000000000000101060000A5
:1054000000000000000000000080014002200410A5
:1054100008081004000002200220022002200220BE
:1054200002200220000000001004080804100220DE
:1054300001400080000000000E001200100C106CF3
:1054400010800F00000003E00C1813E4142417C4AC
:10545000082807D000000004003C03C41C4007409B
:1054600000E4001C000410041FFC110411041104CA
:105470000E880070000003E00C18100410041004E3
:1054800010081C10000010041FFC1004100410046D
:10549000080807F0000010041FFC1104110417C4D1
:1054A00010040818000010041FFC1104110017C09C
:1054B00010000800000003E00C1810041004104451
:1054C0001C780040000010041FFC10840080008045
:1054D00010841FFC10040000100410041FFC1004B2
:1054E00010040000000000030001100110011FFE65
:1054F00010001000000010041FFC1104038014644D
:10550000181C1004000010041FFC10040004000408
:105510000004000C000010041FFC1F0000FC1F0012
:105520001FFC1004000010041FFC0C04030000E02A
:1055300010181FFC100007F00808100410041004D5
:10554000080807F0000010041FFC10841080108071
:1055500010800F00000007F0081810241024101C01
:10556000080A07F2000010041FFC1104110011C00A
:1055700011300E0C000400000E1C11041084108465
:1055800010441C3800001800100010041FFC100408
:1055900010001800000010001FF8100400040004A0
:1055A00010041FF8100010001E0011E0001C007015
:1055B00013801C0010001FC0103C00E01F0000E022
:1055C000103C1FC000001004180C163401C001C0AC
:1055D0001634180C100410001C00130400FC1304F3
:1055E0001C00100000000804101C10641084130438
:1055F0001C04101800000000000000007FFE4002A4
:10560000400240020000000030000C0003800060F7
:10561000001C0003000000004002400240027FFE28
:1056200000000000000000000000200040004000DA
:105630004000200000000001000100010001000105
:1056400000010001000100004000400020000000B7
:105650000000000000000000009801240144014403
:10566000014400FC000410001FFC00880104010438
:105670000088007000000000007000880104010430
:10568000010400880000000000700088010401048B
:1056900011081FFC0004000000F80144014401440B
:1056A000014400C800000000010401040FFC1104C3
:1056B000110411001800000000D601290129012958
:1056C00001C90106000010041FFC00840100010054
:1056D000010400FC000400000104190419FC00048A
:1056E0000004000000000000000300010101190196
:1056F00019FE0000000010041FFC0024004001B44B
:10570000010C010400000000100410041FFC000440
:10571000000400000000010401FC0104010001FC80
:105720000104010000FC010401FC008401000100EF
:10573000010400FC0004000000F80104010401045D
:10574000010400F80000010101FF008501040104CB
:10575000008800700000000000700088010401044F
:10576000010501FF00010104010401FC00840104A2
:10577000010001800000000000CC0124012401246C
:1057800001240198000000000100010007F8010455
:10579000010400000000010001F8000400040004FE
:1057A000010801FC0004010001800170000C0010E0
:1057B00001600180010001F0010C003001C00030E7
:1057C000010C01F0010000000104018C0074017063
:1057D000018C01040000010101810171000E00181B
:1057E00001600180010000000184010C01340144CA
:1057F0000184010C00000000000000000000010016
:105800003EFC400240020000000000000000FFFFDC
:105810000000000000000000400240023EFC0100C9
:1058200000000000000000006000800080004000D8
:1058300040002000200000000000000000000000E8
:105840000000000000000000000000000000000058
:105850000000000000000000000000000000000048
:105860000000000000000000000F80380FFE380F1D
:105870008038000000000000000000000000000070
:10588000000000000100000600000C0000380000CD
:105890003100000600000C0000380000300000005D
:1058A00000000000000061800067F807F9800061D7
:1058B000800061800061800061800067F807F980E6
:1058C00000618000000000000000000001C0E00353
:1058D000E0F00630080418081FFFFE040E080787D2
:1058E000F00381E000000000000001F000060C0061
:1058F000040408060C7001F9C0000E00003BE00033
:10590000EC18070808040C180003E0000000000170
:10591000E00007F003F818041C0804170807E1D09A
:1059200003C0E00023B0003C080020080000100085
:1059300000000000000100003100003200001C00E7
:105940000000000000000000000000000000000057
:105950000000000000000000000000000000000047
:105960000000000000007F0001FFC00780F00C0075
:1059700018100004200002000000000000200002B7
:105980001000040C00180780F001FFC0007F000029
:105990000000000000000000000000000000000007
:1059A00000004200006600006600003C0000180095
:1059B00003FFC0001800003C000066000066000005
:1059C0004200000000000800000800000800000875
:1059D0000000080001FFC0000800000800000800E7
:1059E0000008000008000000000000010000310075
:1059F000003200001C000000000000000000000059
:105A0000000000000000000000000000000008008E
:105A1000000800000800000800000800000800005E
:105A20000800000800000800000800000000000056
:105A300000000000000038000038000038000000BE
:105A40000000000000000000000000000000000056
:105A5000000000000000000600001C0000700001B3
:105A600080000E0000380000C0000700001C00008D
:105A7000300000000000000000007F8001FFE00314
:105A8000807006001804000804000806001803804F
:105A90007001FFE0007F80000000000000000000B7
:105AA00001000801000801000803FFF807FFF800E3
:105AB00000080000080000080000000000000000CE
:105AC0000001C03802C058040098040118040218EC
:105AD000040418061C1803F81801E0F80000000080
